{
  "contractName": "TokenSwap",
  "abi": [
    {
      "inputs": [
        {
          "internalType": "address",
          "name": "_oldToken",
          "type": "address"
        },
        {
          "internalType": "address",
          "name": "_newToken",
          "type": "address"
        }
      ],
      "stateMutability": "nonpayable",
      "type": "constructor"
    },
    {
      "anonymous": false,
      "inputs": [
        {
          "indexed": true,
          "internalType": "bytes32",
          "name": "role",
          "type": "bytes32"
        },
        {
          "indexed": true,
          "internalType": "bytes32",
          "name": "previousAdminRole",
          "type": "bytes32"
        },
        {
          "indexed": true,
          "internalType": "bytes32",
          "name": "newAdminRole",
          "type": "bytes32"
        }
      ],
      "name": "RoleAdminChanged",
      "type": "event"
    },
    {
      "anonymous": false,
      "inputs": [
        {
          "indexed": true,
          "internalType": "bytes32",
          "name": "role",
          "type": "bytes32"
        },
        {
          "indexed": true,
          "internalType": "address",
          "name": "account",
          "type": "address"
        },
        {
          "indexed": true,
          "internalType": "address",
          "name": "sender",
          "type": "address"
        }
      ],
      "name": "RoleGranted",
      "type": "event"
    },
    {
      "anonymous": false,
      "inputs": [
        {
          "indexed": true,
          "internalType": "bytes32",
          "name": "role",
          "type": "bytes32"
        },
        {
          "indexed": true,
          "internalType": "address",
          "name": "account",
          "type": "address"
        },
        {
          "indexed": true,
          "internalType": "address",
          "name": "sender",
          "type": "address"
        }
      ],
      "name": "RoleRevoked",
      "type": "event"
    },
    {
      "inputs": [],
      "name": "DEFAULT_ADMIN_ROLE",
      "outputs": [
        {
          "internalType": "bytes32",
          "name": "",
          "type": "bytes32"
        }
      ],
      "stateMutability": "view",
      "type": "function"
    },
    {
      "inputs": [],
      "name": "WHITELISTED",
      "outputs": [
        {
          "internalType": "bytes32",
          "name": "",
          "type": "bytes32"
        }
      ],
      "stateMutability": "view",
      "type": "function"
    },
    {
      "inputs": [
        {
          "internalType": "bytes32",
          "name": "role",
          "type": "bytes32"
        }
      ],
      "name": "getRoleAdmin",
      "outputs": [
        {
          "internalType": "bytes32",
          "name": "",
          "type": "bytes32"
        }
      ],
      "stateMutability": "view",
      "type": "function"
    },
    {
      "inputs": [
        {
          "internalType": "bytes32",
          "name": "role",
          "type": "bytes32"
        },
        {
          "internalType": "uint256",
          "name": "index",
          "type": "uint256"
        }
      ],
      "name": "getRoleMember",
      "outputs": [
        {
          "internalType": "address",
          "name": "",
          "type": "address"
        }
      ],
      "stateMutability": "view",
      "type": "function"
    },
    {
      "inputs": [
        {
          "internalType": "bytes32",
          "name": "role",
          "type": "bytes32"
        }
      ],
      "name": "getRoleMemberCount",
      "outputs": [
        {
          "internalType": "uint256",
          "name": "",
          "type": "uint256"
        }
      ],
      "stateMutability": "view",
      "type": "function"
    },
    {
      "inputs": [
        {
          "internalType": "bytes32",
          "name": "role",
          "type": "bytes32"
        },
        {
          "internalType": "address",
          "name": "account",
          "type": "address"
        }
      ],
      "name": "grantRole",
      "outputs": [],
      "stateMutability": "nonpayable",
      "type": "function"
    },
    {
      "inputs": [
        {
          "internalType": "bytes32",
          "name": "role",
          "type": "bytes32"
        },
        {
          "internalType": "address",
          "name": "account",
          "type": "address"
        }
      ],
      "name": "hasRole",
      "outputs": [
        {
          "internalType": "bool",
          "name": "",
          "type": "bool"
        }
      ],
      "stateMutability": "view",
      "type": "function"
    },
    {
      "inputs": [],
      "name": "newToken",
      "outputs": [
        {
          "internalType": "address",
          "name": "",
          "type": "address"
        }
      ],
      "stateMutability": "view",
      "type": "function"
    },
    {
      "inputs": [],
      "name": "oldToken",
      "outputs": [
        {
          "internalType": "address",
          "name": "",
          "type": "address"
        }
      ],
      "stateMutability": "view",
      "type": "function"
    },
    {
      "inputs": [
        {
          "internalType": "bytes32",
          "name": "role",
          "type": "bytes32"
        },
        {
          "internalType": "address",
          "name": "account",
          "type": "address"
        }
      ],
      "name": "renounceRole",
      "outputs": [],
      "stateMutability": "nonpayable",
      "type": "function"
    },
    {
      "inputs": [
        {
          "internalType": "bytes32",
          "name": "role",
          "type": "bytes32"
        },
        {
          "internalType": "address",
          "name": "account",
          "type": "address"
        }
      ],
      "name": "revokeRole",
      "outputs": [],
      "stateMutability": "nonpayable",
      "type": "function"
    },
    {
      "inputs": [
        {
          "internalType": "address",
          "name": "addr",
          "type": "address"
        }
      ],
      "name": "whitelisted",
      "outputs": [
        {
          "internalType": "bool",
          "name": "",
          "type": "bool"
        }
      ],
      "stateMutability": "view",
      "type": "function"
    },
    {
      "inputs": [
        {
          "internalType": "address[]",
          "name": "addrs",
          "type": "address[]"
        }
      ],
      "name": "whitelistAdd",
      "outputs": [],
      "stateMutability": "nonpayable",
      "type": "function"
    },
    {
      "inputs": [
        {
          "internalType": "address[]",
          "name": "addrs",
          "type": "address[]"
        }
      ],
      "name": "whitelistRemove",
      "outputs": [],
      "stateMutability": "nonpayable",
      "type": "function"
    },
    {
      "inputs": [
        {
          "internalType": "uint256",
          "name": "val",
          "type": "uint256"
        }
      ],
      "name": "swap",
      "outputs": [],
      "stateMutability": "nonpayable",
      "type": "function"
    }
  ],
  "bytecode": "0x60806040523480156200001157600080fd5b506040516200145938038062001459833981810160405260408110156200003757600080fd5b81019080805190602001909291908051906020019092919050505081600160006101000a81548173ffffffffffffffffffffffffffffffffffffffff021916908373ffffffffffffffffffffffffffffffffffffffff16021790555080600260006101000a81548173ffffffffffffffffffffffffffffffffffffffff021916908373ffffffffffffffffffffffffffffffffffffffff160217905550620000f86000801b620000ec6200014160201b60201c565b6200014960201b60201c565b620001397fe799c73ff785ac053943f5d98452f7fa0bcf54da67826fc217d6094dec75c5ee6200012d6200014160201b60201c565b6200014960201b60201c565b5050620002d7565b600033905090565b6200015b82826200015f60201b60201c565b5050565b6200018d816000808581526020019081526020016000206000016200020260201b62000c901790919060201c565b15620001fe57620001a36200014160201b60201c565b73ffffffffffffffffffffffffffffffffffffffff168173ffffffffffffffffffffffffffffffffffffffff16837f2f8788117e7eff1d82e926ec794901d17c78024a50270940304540a733656f0d60405160405180910390a45b5050565b600062000232836000018373ffffffffffffffffffffffffffffffffffffffff1660001b6200023a60201b60201c565b905092915050565b60006200024e8383620002b460201b60201c565b620002a9578260000182908060018154018082558091505060019003906000526020600020016000909190919091505582600001805490508360010160008481526020019081526020016000208190555060019050620002ae565b600090505b92915050565b600080836001016000848152602001908152602001600020541415905092915050565b61117280620002e76000396000f3fe608060405234801561001057600080fd5b50600436106100f55760003560e01c806394b918de11610097578063c42bd05a11610066578063c42bd05a146104ac578063ca15c873146104e0578063d547741f14610522578063d936547e14610570576100f5565b806394b918de146103745780639cf94943146103a2578063a217fddf1461045a578063b31c710a14610478576100f5565b80632f2ff15d116100d35780632f2ff15d1461021257806336568abe146102605780639010d07c146102ae57806391d1485414610310576100f5565b80630b71f116146100fa5780630c82b94214610118578063248a9ca3146101d0575b600080fd5b6101026105ca565b6040518082815260200191505060405180910390f35b6101ce6004803603602081101561012e57600080fd5b810190808035906020019064010000000081111561014b57600080fd5b82018360208201111561015d57600080fd5b8035906020019184602083028401116401000000008311171561017f57600080fd5b919080806020026020016040519081016040528093929190818152602001838360200280828437600081840152601f19601f8201169050808301925050505050505091929192905050506105ee565b005b6101fc600480360360208110156101e657600080fd5b81019080803590602001909291905050506106ce565b6040518082815260200191505060405180910390f35b61025e6004803603604081101561022857600080fd5b8101908080359060200190929190803573ffffffffffffffffffffffffffffffffffffffff1690602001909291905050506106ed565b005b6102ac6004803603604081101561027657600080fd5b8101908080359060200190929190803573ffffffffffffffffffffffffffffffffffffffff169060200190929190505050610776565b005b6102e4600480360360408110156102c457600080fd5b81019080803590602001909291908035906020019092919050505061080f565b604051808273ffffffffffffffffffffffffffffffffffffffff16815260200191505060405180910390f35b61035c6004803603604081101561032657600080fd5b8101908080359060200190929190803573ffffffffffffffffffffffffffffffffffffffff169060200190929190505050610840565b60405180821515815260200191505060405180910390f35b6103a06004803603602081101561038a57600080fd5b8101908080359060200190929190505050610871565b005b610458600480360360208110156103b857600080fd5b81019080803590602001906401000000008111156103d557600080fd5b8201836020820111156103e757600080fd5b8035906020019184602083028401116401000000008311171561040957600080fd5b919080806020026020016040519081016040528093929190818152602001838360200280828437600081840152601f19601f820116905080830192505050505050509192919290505050610a7b565b005b610462610b5b565b6040518082815260200191505060405180910390f35b610480610b62565b604051808273ffffffffffffffffffffffffffffffffffffffff16815260200191505060405180910390f35b6104b4610b88565b604051808273ffffffffffffffffffffffffffffffffffffffff16815260200191505060405180910390f35b61050c600480360360208110156104f657600080fd5b8101908080359060200190929190505050610bae565b6040518082815260200191505060405180910390f35b61056e6004803603604081101561053857600080fd5b8101908080359060200190929190803573ffffffffffffffffffffffffffffffffffffffff169060200190929190505050610bd4565b005b6105b26004803603602081101561058657600080fd5b81019080803573ffffffffffffffffffffffffffffffffffffffff169060200190929190505050610c5d565b60405180821515815260200191505060405180910390f35b7fe799c73ff785ac053943f5d98452f7fa0bcf54da67826fc217d6094dec75c5ee81565b6106026000801b6105fd610cc0565b610840565b610674576040517f08c379a00000000000000000000000000000000000000000000000000000000081526004018080602001828103825260138152602001807f43616c6c6572206973206e6f742061646d696e0000000000000000000000000081525060200191505060405180910390fd5b60005b81518110156106ca576106bd7fe799c73ff785ac053943f5d98452f7fa0bcf54da67826fc217d6094dec75c5ee8383815181106106b057fe5b6020026020010151610bd4565b8080600101915050610677565b5050565b6000806000838152602001908152602001600020600201549050919050565b6107136000808481526020019081526020016000206002015461070e610cc0565b610840565b610768576040517f08c379a000000000000000000000000000000000000000000000000000000000815260040180806020018281038252602f8152602001806110af602f913960400191505060405180910390fd5b6107728282610cc8565b5050565b61077e610cc0565b73ffffffffffffffffffffffffffffffffffffffff168173ffffffffffffffffffffffffffffffffffffffff1614610801576040517f08c379a000000000000000000000000000000000000000000000000000000000815260040180806020018281038252602f81526020018061110e602f913960400191505060405180910390fd5b61080b8282610d5b565b5050565b600061083882600080868152602001908152602001600020600001610dee90919063ffffffff16565b905092915050565b600061086982600080868152602001908152602001600020600001610e0890919063ffffffff16565b905092915050565b6108a27fe799c73ff785ac053943f5d98452f7fa0bcf54da67826fc217d6094dec75c5ee61089d610cc0565b610840565b610914576040517f08c379a00000000000000000000000000000000000000000000000000000000081526004018080602001828103825260198152602001807f43616c6c6572206973206e6f742077686974656c69737465640000000000000081525060200191505060405180910390fd5b600160009054906101000a900473ffffffffffffffffffffffffffffffffffffffff1673ffffffffffffffffffffffffffffffffffffffff166379cc679061095a610cc0565b836040518363ffffffff1660e01b8152600401808373ffffffffffffffffffffffffffffffffffffffff16815260200182815260200192505050600060405180830381600087803b1580156109ae57600080fd5b505af11580156109c2573d6000803e3d6000fd5b50505050600260009054906101000a900473ffffffffffffffffffffffffffffffffffffffff1673ffffffffffffffffffffffffffffffffffffffff166340c10f19610a0c610cc0565b836040518363ffffffff1660e01b8152600401808373ffffffffffffffffffffffffffffffffffffffff16815260200182815260200192505050600060405180830381600087803b158015610a6057600080fd5b505af1158015610a74573d6000803e3d6000fd5b5050505050565b610a8f6000801b610a8a610cc0565b610840565b610b01576040517f08c379a00000000000000000000000000000000000000000000000000000000081526004018080602001828103825260138152602001807f43616c6c6572206973206e6f742061646d696e0000000000000000000000000081525060200191505060405180910390fd5b60005b8151811015610b5757610b4a7fe799c73ff785ac053943f5d98452f7fa0bcf54da67826fc217d6094dec75c5ee838381518110610b3d57fe5b60200260200101516106ed565b8080600101915050610b04565b5050565b6000801b81565b600160009054906101000a900473ffffffffffffffffffffffffffffffffffffffff1681565b600260009054906101000a900473ffffffffffffffffffffffffffffffffffffffff1681565b6000610bcd600080848152602001908152602001600020600001610e38565b9050919050565b610bfa60008084815260200190815260200160002060020154610bf5610cc0565b610840565b610c4f576040517f08c379a00000000000000000000000000000000000000000000000000000000081526004018080602001828103825260308152602001806110de6030913960400191505060405180910390fd5b610c598282610d5b565b5050565b6000610c897fe799c73ff785ac053943f5d98452f7fa0bcf54da67826fc217d6094dec75c5ee83610840565b9050919050565b6000610cb8836000018373ffffffffffffffffffffffffffffffffffffffff1660001b610e4d565b905092915050565b600033905090565b610cef81600080858152602001908152602001600020600001610c9090919063ffffffff16565b15610d5757610cfc610cc0565b73ffffffffffffffffffffffffffffffffffffffff168173ffffffffffffffffffffffffffffffffffffffff16837f2f8788117e7eff1d82e926ec794901d17c78024a50270940304540a733656f0d60405160405180910390a45b5050565b610d8281600080858152602001908152602001600020600001610ebd90919063ffffffff16565b15610dea57610d8f610cc0565b73ffffffffffffffffffffffffffffffffffffffff168173ffffffffffffffffffffffffffffffffffffffff16837ff6391f5c32d9c69d2a47ea670b442974b53935d1edc7fd64eb21e047a839171b60405160405180910390a45b5050565b6000610dfd8360000183610eed565b60001c905092915050565b6000610e30836000018373ffffffffffffffffffffffffffffffffffffffff1660001b610f70565b905092915050565b6000610e4682600001610f93565b9050919050565b6000610e598383610f70565b610eb2578260000182908060018154018082558091505060019003906000526020600020016000909190919091505582600001805490508360010160008481526020019081526020016000208190555060019050610eb7565b600090505b92915050565b6000610ee5836000018373ffffffffffffffffffffffffffffffffffffffff1660001b610fa4565b905092915050565b600081836000018054905011610f4e576040517f08c379a000000000000000000000000000000000000000000000000000000000815260040180806020018281038252602281526020018061108d6022913960400191505060405180910390fd5b826000018281548110610f5d57fe5b9060005260206000200154905092915050565b600080836001016000848152602001908152602001600020541415905092915050565b600081600001805490509050919050565b600080836001016000848152602001908152602001600020549050600081146110805760006001820390506000600186600001805490500390506000866000018281548110610fef57fe5b906000526020600020015490508087600001848154811061100c57fe5b906000526020600020018190555060018301876001016000838152602001908152602001600020819055508660000180548061104457fe5b60019003818190600052602060002001600090559055866001016000878152602001908152602001600020600090556001945050505050611086565b60009150505b9291505056fe456e756d657261626c655365743a20696e646578206f7574206f6620626f756e6473416363657373436f6e74726f6c3a2073656e646572206d75737420626520616e2061646d696e20746f206772616e74416363657373436f6e74726f6c3a2073656e646572206d75737420626520616e2061646d696e20746f207265766f6b65416363657373436f6e74726f6c3a2063616e206f6e6c792072656e6f756e636520726f6c657320666f722073656c66a26469706673582212209a5501b13d293834b0dca9a9bee0d491a75f5c00ff0c70e6ba790a335168de6264736f6c63430007010033",
  "immutableReferences": {},
  "source": "// SPDX-License-Identifier: MIT\r\npragma solidity ^0.7;\r\n\r\nimport \"./vendor/access/AccessControl.sol\";\r\n\r\ninterface IERC20Ops {\r\n    function mint(address, uint256) external;\r\n    function burnFrom(address, uint256) external;\r\n}\r\n\r\ncontract TokenSwap is AccessControl {\r\n    \r\n    bytes32 public constant WHITELISTED = keccak256(\"WHITELISTED\");\r\n    \r\n    address public oldToken;\r\n    address public newToken;\r\n    \r\n    constructor(address _oldToken, address _newToken){\r\n        oldToken = _oldToken;\r\n        newToken = _newToken;\r\n        _setupRole(DEFAULT_ADMIN_ROLE, _msgSender());\r\n        _setupRole(WHITELISTED, _msgSender());\r\n    }\r\n    \r\n    function whitelisted(address addr) public view returns (bool) {\r\n        return hasRole(WHITELISTED, addr);\r\n    } \r\n    \r\n    function whitelistAdd(address[] memory addrs) public {\r\n        require(hasRole(DEFAULT_ADMIN_ROLE, _msgSender()), \"Caller is not admin\");\r\n        for (uint256 i = 0; i < addrs.length; i++){\r\n            grantRole(WHITELISTED, addrs[i]);\r\n        }\r\n    }\r\n    \r\n    function whitelistRemove(address[] memory addrs) public {\r\n        require(hasRole(DEFAULT_ADMIN_ROLE, _msgSender()), \"Caller is not admin\");\r\n        for (uint256 i = 0; i < addrs.length; i++){\r\n            revokeRole(WHITELISTED, addrs[i]);\r\n        }\r\n    }\r\n    \r\n    function swap(uint256 val) public {\r\n        require(hasRole(WHITELISTED, _msgSender()), \"Caller is not whitelisted\");\r\n        IERC20Ops(oldToken).burnFrom(_msgSender(), val);\r\n        IERC20Ops(newToken).mint(_msgSender(), val);\r\n    }\r\n    \r\n}",
  "sourcePath": "E:/Repositories/RDG/Contracts/contracts/RDGSwap.sol",
  "compiler": {
    "name": "solc",
    "version": "0.7.1+commit.f4a555be.Emscripten.clang"
  },
  "schemaVersion": "3.2.5",
  "updatedAt": "2020-09-28T19:18:41.052Z",
  "devdoc": {
    "kind": "dev",
    "methods": {
      "getRoleAdmin(bytes32)": {
        "details": "Returns the admin role that controls `role`. See {grantRole} and {revokeRole}. To change a role's admin, use {_setRoleAdmin}."
      },
      "getRoleMember(bytes32,uint256)": {
        "details": "Returns one of the accounts that have `role`. `index` must be a value between 0 and {getRoleMemberCount}, non-inclusive. Role bearers are not sorted in any particular way, and their ordering may change at any point. WARNING: When using {getRoleMember} and {getRoleMemberCount}, make sure you perform all queries on the same block. See the following https://forum.openzeppelin.com/t/iterating-over-elements-on-enumerableset-in-openzeppelin-contracts/2296[forum post] for more information."
      },
      "getRoleMemberCount(bytes32)": {
        "details": "Returns the number of accounts that have `role`. Can be used together with {getRoleMember} to enumerate all bearers of a role."
      },
      "grantRole(bytes32,address)": {
        "details": "Grants `role` to `account`. If `account` had not been already granted `role`, emits a {RoleGranted} event. Requirements: - the caller must have ``role``'s admin role."
      },
      "hasRole(bytes32,address)": {
        "details": "Returns `true` if `account` has been granted `role`."
      },
      "renounceRole(bytes32,address)": {
        "details": "Revokes `role` from the calling account. Roles are often managed via {grantRole} and {revokeRole}: this function's purpose is to provide a mechanism for accounts to lose their privileges if they are compromised (such as when a trusted device is misplaced). If the calling account had been granted `role`, emits a {RoleRevoked} event. Requirements: - the caller must be `account`."
      },
      "revokeRole(bytes32,address)": {
        "details": "Revokes `role` from `account`. If `account` had been granted `role`, emits a {RoleRevoked} event. Requirements: - the caller must have ``role``'s admin role."
      }
    },
    "version": 1
  },
  "userdoc": {
    "kind": "user",
    "methods": {},
    "version": 1
  }
}